:020000040800F2
:10000000005000209D160008191600081B16000855
:100010001D1600081F160008211600080000000029
:10002000000000000000000000000000231600088F
:1000300025160008000000002716000829160008F1
:10004000E5160008E5160008E5160008E5160008A4
:10005000E5160008E5160008E5160008E516000894
:10006000E5160008E5160008E5160008E516000884
:10007000E5160008E5160008E5160008E516000874
:10008000E5160008E5160008E5160008E516000864
:10009000E5160008E5160008E5160008E516000854
:1000A000E5160008E5160008E5160008E516000844
:1000B0002D16000839160008E5160008E516000898
:1000C000E5160008E5160008E5160008E516000824
:1000D000E516000845160008E5160008E5160008B4
:1000E000E5160008E5160008E51600080000000007
:1000F0000000000000000000000000000000000000
:0C01000000000000000000005FF808F1A3
:10010C0010B5054C237833B9044B13B10448AFF345
:10011C0000800123237010BD0C00002000000000A3
:10012C004017000808B5034B1BB103490348AFF354
:10013C00008008BD000000001000002040170008DF
:10014C0038B50E4B054618784FF47A73B3FBF0F3C1
:10015C000B4A1068B0FBF3F000F08EF8044658B967
:10016C000F2D09D8024629464FF0FF3000F042F817
:10017C00044B20461D6038BD012038BD0000002016
:10018C000800002004000020074A08B5136803206B
:10019C0043F01003136000F01BF80020FFF7D0FFB2
:1001AC0001F09AF9002008BD00200240034A044BDC
:1001BC0011681B780B441360704700BF2C000020A3
:1001CC0000000020014B1868704700BF2C00002075
:1001DC00074A0002D36800F4E06023F4E0631B04D8
:1001EC001B0C43F0BF6343F400330343D3607047ED
:1001FC0000ED00E0174B30B5DC68C4F30224C4F109
:10020C000703251D042B28BF0423062D4FF00105E1
:10021C0098BF002405FA03F303F1FF3388BF033CB6
:10022C001940A14005FA04F4013C2240002842EA9E
:10023C0001024FEA0212A9BF00F16040064BD2B294
:10024C0000F56140BBBF00F00F00D2B280F8002374
:10025C001A5430BD00ED00E014ED00E0002808DB7E
:10026C000123420900F01F0003FA00F0014B43F890
:10027C002200704700E100E00138B0F1807F0AD223
:10028C00F021064B064A586082F823100020072202
:10029C0098601A6070470120704700BF10E000E0C2
:1002AC0000ED00E090F8213010B5022B03D00423B0
:1002BC008363012010BD03681A6822F00E021A60D5
:1002CC001A6822F001021A60184A93421FD01432A5
:1002DC0093421ED0143293421DD0143293421DD03F
:1002EC00143293421DD0143293420CBF4FF480133E
:1002FC004FF080730E4A00245360012380F82130A4
:10030C00436B80F820407BB19847204610BD0123F9
:10031C00F0E71023EEE74FF48073EBE74FF48053D4
:10032C00E8E74FF48033E5E7184610BD08000240BB
:10033C00000002402DE9F74F00242646664BDFF8FB
:10034C00A8E1DFF8A8C10A6832FA06F502D103B0B9
:10035C00BDE8F08F4FF0010808FA06F802EA08022F
:10036C0090457FD14D68122D00F0AA8000F2838059
:10037C00022D00F0A28077D8002D00F08980012D8D
:10038C0000F099804FF00F09FF2A93BF824606F1C7
:10039C008045083DD0F800B092BFB500D0F804B04D
:1003AC00AD0009FA05F82BEA080804FA05F588BF30
:1003BC0000F1040A48EA0505CAF80050D1F804A077
:1003CC001AF0805F4ED0454D444FAD6926F00308BE
:1003DC0045F00105BD61BD6908F1804805F00105D6
:1003EC00019508F5803806F0030B019D4FEA8B0B45
:1003FC00D8F8085009FA0BF925EA0909384DA84232
:10040C0063D005F58065A84261D005F58065A842EA
:10041C005FD005F58065A8420CBF0325042505FABD
:10042C000BF545EA0905C8F808501D681AF4803F19
:10043C0014BF154395431D605D681AF4003F14BF4B
:10044C00154395435D609D681AF4801F14BF1543D6
:10045C0095439D60DD681AF4001F14BF2A4325EAFA
:10046C000202DA6001366EE7032D22D0112D89D1FC
:10047C00CC68043486E71B4FBD4209D012D8DFF894
:10048C0070904D4504D009F580394D457FF47AAF15
:10049C008C68C4B1012C0CBFC0F81080C0F814805B
:1004AC0008246FE77545F3D06545F1D0DFF844902B
:1004BC00EBE7002466E7CC6864E7CC68083461E7B6
:1004CC00CC680C345EE704245CE70025A7E7012523
:1004DC00A5E70225A3E700BF00040140001002407D
:1004EC000008014000002110000031100000321003
:1004FC0000001110000022108368194214BF012063
:10050C00002070470AB1016170470904FBE7000045
:10051C002DE9F341054608B901203CE00368DB07EF
:10052C0010D42B689F075DD42B68190700F19480B9
:10053C002B685A0700F1BE80E869002840F02C8136
:10054C00002028E08F4C636803F00C03042B07D0C9
:10055C00636803F00C03082B09D16368DE0306D52E
:10056C0023689C03DDD56B68002BDAD1D4E76B686C
:10057C00B3F5803F12D1236843F480332360FFF737
:10058C0021FE064623689803CBD4FFF71BFE801B85
:10059C006428F7D9032002B0BDE8F0819BB9236829
:1005AC0023F480332360236823F480232360FFF734
:1005BC0009FE064623689903B3D5FFF703FE801B9B
:1005CC006428F7D9E6E7B3F5A02F236803D143F4E9
:1005DC0080232360CFE723F480332360236823F444
:1005EC008023CBE7674C636813F00C0F07D063686C
:1005FC0003F00C03082B10D16368DA030DD42368C5
:10060C009B0702D52B69012B86D123686A6923F0DD
:10061C00F80343EAC203236086E72A695A4B6AB19E
:10062C0001221A60FFF7CEFD064623689F07ECD423
:10063C00FFF7C8FD801B0228F7D9ABE71A60FFF75C
:10064C00C1FD0646236898077FF56EAFFFF7BAFD2C
:10065C00801B0228F6D99DE7AA694A4C4B4BDAB1AC
:10066C0001221A60FFF7AEFD0646636A9B070DD5A3
:10067C004FF4FA52464B1B68B3FBF2F3019300BFE5
:10068C00019B5A1E0192002BF9D151E7FFF79AFDFD
:10069C00801B0228E9D97DE71A60FFF793FD064617
:1006AC00636A9F077FF544AFFFF78CFD801B022820
:1006BC00F6D96FE7334CE369D80024D40127E369FA
:1006CC0043F08053E361E36903F080530093009B94
:1006DC00304E3368D90518D5EB68012B26D1236A27
:1006EC0043F001032362FFF76DFD41F2883680462B
:1006FC00236A9B073FD5002F3FF41EAFE36923F01D
:10070C008053E36118E70027E2E7336843F4807312
:10071C003360FFF757FD80463368DA05DCD4FFF70A
:10072C0051FDA0EB08006428F6D933E7ABB9236A76
:10073C0041F2883823F001032362236A23F0040377
:10074C002362FFF73FFD0646236A9807D3D5FFF7D0
:10075C0039FD801B4045F7D91CE7052B236A03D1D3
:10076C0043F004032362BAE723F001032362236AF4
:10077C0023F00403B6E7FFF725FDA0EB0800B04219
:10078C00B6D907E700100240000042428004424202
:10079C0008000020007000402A4B5A681C4602F0EA
:1007AC000C02082A3DD00023274E022833602BD19F
:1007BC00FFF708FD0746236899011FD42B6AB3F590
:1007CC00803F05D16268A96822F400320A43626056
:1007DC00696A62680B4322F4741213436360012349
:1007EC003360FFF7EFFC054623689A013FF5A8AE8E
:1007FC00FFF7E8FC401B0228F6D9CBE6FFF7E2FC3A
:10080C00C01B0228D7D9C5E6FFF7DCFC05462368D8
:10081C009B017FF595AEFFF7D5FC401B0228F6D95E
:10082C00B8E601283FF4B7AE58682B6A00F4803262
:10083C009A427FF471AE6B6A00F47010C01A18BF44
:10084C000120A8E6001002406000424230B5194B6E
:10085C0087B002AC03F110052246186859680833BA
:10086C0003C2AB421446F7D101238DF804300223A6
:10087C0011498DF805304B6803F00C02082A17D18A
:10088C00C3F3834206A80244DB0312F8102C0CD5E8
:10089C004B680A48C3F34043504306AA134413F869
:1008AC00143CB0FBF3F007B030BD05485043FAE7F9
:1008BC000248F8E7581700080010024000127A00AE
:1008CC0000093D002DE9F0410D46044610B9012008
:1008DC00BDE8F081454A136803F007038B4229D326
:1008EC0021688E0731D4CA0744D4404A136803F0F8
:1008FC0007039D4267D322683D4D12F0040F6ED161
:10090C00130706D56B68226923F4605343EAC203CC
:10091C006B60FFF79BFF6B68364AC3F30313D35C22
:10092C00D840354B1860354B1868FFF709FC002090
:10093C00BDE8F081136823F007030B4313601368C1
:10094C0003F007039942C2D1CAE7294B11F0040FF7
:10095C001EBF5A6842F4E0625A60080742BF5A68E8
:10096C0042F460525A605A68A06822F0F0020243C6
:10097C005A60B8E762681E4E012A33681BD113F423
:10098C00003FA4D0736841F2883823F0030313436B
:10099C007360FFF717FC07467368626803F00C037B
:1009AC00B3EB820FA1D0FFF70DFCC01B4045F3D970
:1009BC000320BDE8F081022A02D113F0007FE0E7AA
:1009CC0013F0020FDDE7136823F007032B431360CA
:1009DC00136803F007039D427FF479AF8BE76B68D4
:1009EC00E16823F4E0630B436B6089E7002002406D
:1009FC0000100240681700080800002004000020C6
:100A0C00044B054A5B68C3F30223D35C034A1068AA
:100A1C00D8407047001002407817000808000020EA
:100A2C00044B054A5B68C3F3C223D35C034A1068CA
:100A3C00D8407047001002407817000808000020CA
:100A4C0003680020DA6842F00102DA609A6802F06A
:100A5C000702062A1EBF1A6842F001021A6070478C
:100A6C007047704770477047036810B51A690446A1
:100A7C0091070ED5DA6892070BD56FF002021A6156
:100A8C0001229B6902779B0777D0FFF7EAFF0023CF
:100A9C00237723681A69500710D5DA6851070DD5EA
:100AAC006FF004021A6102229B69227713F4407FD3
:100ABC00204668D0FFF7D5FF0023237723681A69F7
:100ACC0012070FD5DA6810070CD56FF008021A61FF
:100ADC000422DB692277990720465AD0FFF7C1FF21
:100AEC000023237723681A69D20610D5DA68D0065A
:100AFC000DD56FF010021A610822DB69227713F40E
:100B0C00407F20464BD0FFF7ACFF002323772368B0
:100B1C001A69D10708D5DA68D20705D56FF001023A
:100B2C0020461A6100F02CFC23681A69100608D5BF
:100B3C00DA68110605D56FF0800220461A6100F0C4
:100B4C0044F923681A69520608D5DA68500605D5A7
:100B5C006FF0400220461A61FFF785FF23681A697F
:100B6C00910622D5DA6892061FD56FF02002204636
:100B7C00BDE810401A6100F027B9FFF771FF20465D
:100B8C00FFF770FF83E7FFF76BFF2046FFF76AFF65
:100B9C0092E7FFF765FF2046FFF764FFA0E7FFF73A
:100BAC005FFF2046FFF75EFFAFE710BD1A4A0368F0
:100BBC0090420AD0B0F1804F07D0A2F59432904207
:100BCC0003D002F58062904215D14A6823F070037D
:100BDC001343114A90420AD0B0F1804F07D0A2F5CE
:100BEC009432904203D002F58062904203D1CA68DD
:100BFC0023F4407313434A6923F0800313430360C7
:100C0C008B68C3620B688362034B984204BF0B6909
:100C1C000363012343617047002C014010B5044667
:100C2C00A0B190F83D3003F0FF021BB980F83C20D6
:100C3C0000F074FC0223206884F83D30211DFFF77E
:100C4C00B5FF0123002084F83D3010BD012010BDFC
:100C5C0010B584680A4324F47F4442EA03232343F7
:100C6C00836010BD90F83C3070B5012B04464FF0FA
:100C7C00020019D0012384F83D00206884F83C3030
:100C8C00836823F47F4323F0770383600B68402B46
:100C9C0065D015D8102B0CD007D853B101230020E8
:100CAC0084F83D3084F83C0070BD202B01D0302BF3
:100CBC00F4D1826843F0070322F0700213431AE068
:100CCC00602B34D019D8502BE8D14A68CE68016A11
:100CDC00056A21F00A0125F00105056283690A43C2
:100CEC0023F0F00343EA061383610262836823F066
:100CFC00700343F057038360D0E7702B0CD0B3F52F
:100D0C00005FCBD1CB684A688968FFF7A1FF2268E6
:100D1C00936843F4804308E0CB684A688968FFF71E
:100D2C0097FF2268936843F077039360B6E74D68AA
:100D3C00CE68016A21F0100101628269036A22F413
:100D4C00704223F0A00343EA051342EA06328261A3
:100D5C000362836823F0700343F06703CBE74A68B0
:100D6C00CE68016A056A21F00A0125F001050562C9
:100D7C0083690A4323F0F00343EA0613836102629A
:100D8C00836823F0700343F04703B4E790F83C30DA
:100D9C0030B5012B4FF0020314D0046880F83D30BD
:100DAC006268A3680D68496822F0700223F0800322
:100DBC000B432A436260A360012380F83D3000237B
:100DCC0080F83C30184630BD704770470368DA68CD
:100DDC0022F49072DA605A6922F001025A612023DF
:100DEC0080F83A307047000038B505460368C16892
:100DFC001A69192422F440520A431A618268006964
:100E0C00D9680243686921F4B05121F00C01024306
:100E1C000A43DA605A69A96922F440720A435A619A
:100E2C000D4A934214D1FFF7FBFD60436C686422BA
:100E3C00A400B0FBF4F0B0FBF2F402FB14031B01B2
:100E4C003233B3FBF2F3296803EB04138B6038BD28
:100E5C00FFF7D6FDE9E700BF0038014010B50446A6
:100E6C0040B390F8393003F0FF021BB980F83820FA
:100E7C0000F088FB2423226884F83930D36820469C
:100E8C0023F40053D360FFF7AFFF236800201A69E7
:100E9C0022F490421A615A6922F02A025A61DA68E5
:100EAC0042F40052DA602023E06384F8393084F88D
:100EBC003A3010BD012010BD90F83930202B18D1DC
:100ECC00A9B1A2B190F83830012B12D0C28482841F
:100EDC000023212201620168C36380F83920CA68AB
:100EEC0080F8383042F08002CA6018467047012002
:100EFC0070470220704790F83A30202B20D1E9B18E
:100F0C00E2B190F83830012B1AD0C28582850023CB
:100F1C002222C36380F83A2002688162D16880F88B
:100F2C00383041F48071D1605169184641F00101AB
:100F3C005161D16841F02001D160704701207047A8
:100F4C0002207047704790F83A3010B5222B36D1FA
:100F5C0083680169B3F5805F0268836A23D15268A4
:100F6C00E9B9C2F3080223F8022B8362C48D013C59
:100F7C00A4B2C4858CB90368DA6822F02002DA6066
:100F8C00DA6822F48072DA605A6922F001025A613E
:100F9C00202380F83A3000F083FA002010BDD2B242
:100FAC0023F8012BE1E721B9591C526881621A70B0
:100FBC00DCE75268591C816202F07F02F7E70220DD
:100FCC0010BD7047036870B51A6804461607D968D7
:100FDC005D6907D196065AD58D0658D5BDE8704087
:100FEC00FFF7B1BF15F0010502D111F4907F4ED07F
:100FFC00D30705D5CE0542BFE36B43F00103E36392
:10100C00500704D51DB1E36B43F00203E363930770
:10101C0004D51DB1E36B43F00403E363160704D559
:10102C001DB1E36B43F00803E363E36B002B66D065
:10103C00950604D5880602D52046FFF784FF236861
:10104C0020465D69E26B110702D415F040051AD0F9
:10105C00FFF7BCFE23685A69520610D55A69606BBB
:10106C0022F040025A6150B1254B4363FFF71AF945
:10107C00002844D0606BBDE87040436B1847204695
:10108C00FFF79FFF70BDFFF79CFFE56370BD160671
:10109C0027D50D0625D594F83920212A2FD1A26801
:1010AC00B2F5805F226A17D11188C1F3080159602B
:1010BC00216979B902322262E28C013A92B2E2845D
:1010CC00EAB9DA6822F08002DA60DA6842F04002AB
:1010DC00DA6070BD0132EEE7511C216212785A6061
:1010EC00EAE750060BD54A0609D5DA68204622F005
:1010FC004002DA60202384F83930FFF723FF70BDFB
:10110C001111000808B50023406AC385C384FFF79A
:10111C0058FF08BD002280210148FFF7F3B900BF3A
:10112C000008014010B5064C012220461021FFF7A3
:10113C00E9F92046BDE8104000221021FFF7E2B982
:10114C000010014010B590B02822002106A800F034
:10115C00E9FA1422002101A800F0E4FA01230A9311
:10116C00102302240B934FF4601306A80F930694DC
:10117C000D94FFF7CDF90F234FF4806201930023F8
:10118C00214601A80294039304920593FFF79AFB5E
:10119C0010B010BD102580B58AB0FEF7F5FFFFF733
:1011AC00D1FF2A46002106A800F0BCFA5E4B802134
:1011BC009A695E482A439A619A6900242A400092EF
:1011CC00009A9A69012642F020029A619A690227D4
:1011DC0002F020020192019A9A694FF4805842F071
:1011EC0004029A619A6902F004020292029A9A69C4
:1011FC0042F008029A619B69002203F008030393F2
:10120C00039BFFF77FF9294600224948FFF77AF93B
:10121C00002240F207414748FFF774F9802306A9E2
:10122C0042480693079609970894FFF783F806A996
:10123C003F480695079609970894FFF77BF840F20C
:10124C00074306A93B480693079609970894FFF7AE
:10125C0071F8602306A93748069308960794FFF7A0
:10126C0069F84FF4E133344F344A384687E80C00C0
:10127C000C23BC607B61FC603C61BC61FC61FFF7D2
:10128C00EDFD2A46214606A800F04CFA4FF08041AD
:10129C004FF6FF132A4E049486E80A0040F2E73317
:1012AC003046F3600594B4603461B461FFF7B6FC6A
:1012BC0006A93046CDF81880FFF7D4FC0DEB0501DC
:1012CC00304604940594FFF761FD2A46214606A892
:1012DC0000F028FA40F27F231A4D1B48049485E84D
:1012EC00090040F2F3132846EB600594AC602C61C6
:1012FC00AC61FFF793FC06A92846CDF81880FFF7E0
:10130C00B1FC04A9284604940594FFF73FFD042280
:10131C000E493846FFF7EFFD3046FFF791FB2846A4
:10132C00FFF78EFBFEE700BF0010024000080140F3
:10133C0000100140000C01407800002000380140F2
:10134C00C00000203400002000040040BA0000203F
:10135C00012801D1FFF7DEBE012280210148FFF7F1
:10136C00D1B800BF00080140012801D1FFF7DABE57
:10137C00002210210148FFF7C5B800BF0010014042
:10138C00F8B503680446B3F1804F0FD1394B3A4995
:10139C001B783A480B703A4B1B784B70394B1B88B7
:1013AC001A0A8A700422CB70FFF786FD2268364B2E
:1013BC009A425ED120213548FFF79EF8C043304D4C
:1013CC00402128703148FFF797F8C043304C294E24
:1013DC0023783070012B2BD024D3022B31D02D4B02
:1013EC001B78012B02BF0022264B1A802378032B7B
:1013FC003FD1294B234C198823882746994226D95B
:10140C003278FE2A23D1254A108864224243934223
:10141C001DDA0020FFF79CFFFFF784FE23880133C1
:10142C002380F8BDFFF776FE237801332370D6E7CF
:10143C00FFF778FE2B78FF2BD1D10020FFF788FF28
:10144C00F2E70323002223700E4B1A80C7E7994260
:10145C000AD22B78FE2B07D1FFF75CFEFFF762FE5A
:10146C003B88013B3B80F8BD0020BDE8F840FFF70E
:10147C007BBFF8BD00010020010100207800002096
:10148C00320000203000002000040040000C01401D
:10149C002800002074000020BE000020B8000020AE
:1014AC000849094B0A7809481A804A788B7843EA2C
:1014BC000223074A1380CA78064B1A700422FFF7DE
:1014CC001ABD00BFBA000020B80000207800002030
:1014DC00BE000020740000200E4B82B09A6942F0CE
:1014EC0001029A619A6902F001020092009ADA698B
:1014FC0042F08052DA61DB69074A03F080530193B2
:10150C00019B536823F0E06343F00073536002B017
:10151C00704700BF0010024000000140036807B58F
:10152C00B3F1804F15D103F50433DA691C2042F076
:10153C000102DA610022DB69114603F0010300931A
:10154C00009BFEF757FE1C20FEF788FE03B05DF8EB
:10155C0004FB0A4A9342F9D1094B1D20DA6942F087
:10156C000202DA610022DB69114603F002030193E7
:10157C00019BFEF73FFE1D20E6E700BF0004004084
:10158C000010024010B5044686B01022002102A8BB
:10159C0000F0C8F822681B4B9A4230D103F558432F
:1015AC009A6902A942F480429A619A69164802F437
:1015BC0080420092009A9A69002442F004029A61D7
:1015CC009B6903F004030193019B4FF40073029396
:1015DC000223039303230593FEF7ACFE4FF48063C1
:1015EC0002A90948029303940494FEF7A3FE252054
:1015FC0022462146FEF7FEFD2520FEF72FFE06B003
:10160C0010BD00BF00380140000801407047FEE7E4
:10161C00FEE7FEE7FEE7704770477047FEF7C6BD72
:10162C000148FFF721BA00BFC00000200148FFF7B6
:10163C001BBA00BF340000200148FFF7C3BC00BF39
:10164C00780000200F4B1A6842F001021A605968AA
:10165C000D4A0A405A601A6822F0847222F48032D1
:10166C001A601A6822F480221A605A6822F4FE0268
:10167C005A604FF41F029A604FF00062034B9A605D
:10168C00704700BF001002400000FFF800ED00E0C2
:10169C00002103E00B4B5B58435004310A480B4BC1
:1016AC0042189A42F6D30A4A02E0002342F8043B5D
:1016BC00084B9A42F9D3FFF7C5FF00F00FF8FFF77C
:1016CC0069FD704788170008000000200C000020FE
:1016DC000C00002008010020FEE7000070B500257A
:1016EC000C4E0D4CA41BA410A54209D100F022F8FD
:1016FC0000250A4E0A4CA41BA410A54205D170BDAE
:10170C0056F8253098470135EEE756F825309847BE
:10171C000135F2E7801700088017000880170008D1
:10172C008417000803460244934200D1704703F823
:10173C00011BF9E7F8B500BFF8BC08BC9E46704722
:0C174C00F8B500BFF8BC08BC9E46704712
:1017580002030405060708090A0B0C0D0E0F1010EA
:101768000000000000000000010203040607080949
:0817780000000000010203045F
:04178000310100082B
:041784000D0100084B
:0C17880001000000100000000024F4002C
:040000050800169D3C
:00000001FF
